{
  "_format": "hh-sol-artifact-1",
  "contractName": "Dcg",
  "sourceName": "contracts/Dcg.sol",
  "abi": [
    {
      "inputs": [],
      "stateMutability": "nonpayable",
      "type": "constructor"
    },
    {
      "inputs": [
        {
          "internalType": "address",
          "name": "player1_addr",
          "type": "address"
        },
        {
          "internalType": "uint256",
          "name": "player1_cardPower",
          "type": "uint256"
        },
        {
          "internalType": "address",
          "name": "player2_addr",
          "type": "address"
        },
        {
          "internalType": "uint256",
          "name": "player2_cardPower",
          "type": "uint256"
        }
      ],
      "name": "createGame",
      "outputs": [
        {
          "internalType": "uint256",
          "name": "gameIx",
          "type": "uint256"
        }
      ],
      "stateMutability": "nonpayable",
      "type": "function"
    },
    {
      "inputs": [],
      "name": "getGames",
      "outputs": [
        {
          "components": [
            {
              "internalType": "address",
              "name": "player1_addr",
              "type": "address"
            },
            {
              "internalType": "uint256",
              "name": "player1_cardPower",
              "type": "uint256"
            },
            {
              "internalType": "address",
              "name": "player2_addr",
              "type": "address"
            },
            {
              "internalType": "uint256",
              "name": "player2_cardPower",
              "type": "uint256"
            },
            {
              "internalType": "uint256",
              "name": "turn",
              "type": "uint256"
            }
          ],
          "internalType": "struct Dcg.Game[]",
          "name": "",
          "type": "tuple[]"
        }
      ],
      "stateMutability": "view",
      "type": "function"
    },
    {
      "inputs": [
        {
          "internalType": "uint256",
          "name": "gameIx",
          "type": "uint256"
        },
        {
          "components": [
            {
              "internalType": "uint256",
              "name": "source",
              "type": "uint256"
            },
            {
              "internalType": "uint256",
              "name": "target",
              "type": "uint256"
            },
            {
              "internalType": "enum Dcg.ActionType",
              "name": "actionType",
              "type": "uint8"
            }
          ],
          "internalType": "struct Dcg.Action",
          "name": "action",
          "type": "tuple"
        }
      ],
      "name": "playTurn",
      "outputs": [],
      "stateMutability": "nonpayable",
      "type": "function"
    }
  ],
  "bytecode": "0x608060405234801561001057600080fd5b50610851806100206000396000f3fe608060405234801561001057600080fd5b50600436106100415760003560e01c80633f7449e514610046578063a8b9ec2114610076578063c04c594714610092575b600080fd5b610060600480360381019061005b91906104dd565b6100b0565b60405161006d9190610553565b60405180910390f35b610090600480360381019061008b9190610592565b6101ee565b005b61009a61031b565b6040516100a79190610707565b60405180910390f35b6000806040518060a001604052808773ffffffffffffffffffffffffffffffffffffffff1681526020018681526020018573ffffffffffffffffffffffffffffffffffffffff1681526020018481526020016000815250908060018154018082558091505060019003906000526020600020906005020160009091909190915060008201518160000160006101000a81548173ffffffffffffffffffffffffffffffffffffffff021916908373ffffffffffffffffffffffffffffffffffffffff1602179055506020820151816001015560408201518160020160006101000a81548173ffffffffffffffffffffffffffffffffffffffff021916908373ffffffffffffffffffffffffffffffffffffffff160217905550606082015181600301556080820151816004015550506000805490509050949350505050565b60008054905082106101ff57600080fd5b600080838154811061021457610213610729565b5b906000526020600020906005020190506000600282600401546102379190610787565b0361029d573373ffffffffffffffffffffffffffffffffffffffff168160000160009054906101000a900473ffffffffffffffffffffffffffffffffffffffff1673ffffffffffffffffffffffffffffffffffffffff161461029857600080fd5b6102fa565b3373ffffffffffffffffffffffffffffffffffffffff168160020160009054906101000a900473ffffffffffffffffffffffffffffffffffffffff1673ffffffffffffffffffffffffffffffffffffffff16146102f957600080fd5b5b600181600401600082825461030f91906107e7565b92505081905550505050565b60606000805480602002602001604051908101604052809291908181526020016000905b8282101561043b57838290600052602060002090600502016040518060a00160405290816000820160009054906101000a900473ffffffffffffffffffffffffffffffffffffffff1673ffffffffffffffffffffffffffffffffffffffff1673ffffffffffffffffffffffffffffffffffffffff168152602001600182015481526020016002820160009054906101000a900473ffffffffffffffffffffffffffffffffffffffff1673ffffffffffffffffffffffffffffffffffffffff1673ffffffffffffffffffffffffffffffffffffffff168152602001600382015481526020016004820154815250508152602001906001019061033f565b50505050905090565b600080fd5b600073ffffffffffffffffffffffffffffffffffffffff82169050919050565b600061047482610449565b9050919050565b61048481610469565b811461048f57600080fd5b50565b6000813590506104a18161047b565b92915050565b6000819050919050565b6104ba816104a7565b81146104c557600080fd5b50565b6000813590506104d7816104b1565b92915050565b600080600080608085870312156104f7576104f6610444565b5b600061050587828801610492565b9450506020610516878288016104c8565b935050604061052787828801610492565b9250506060610538878288016104c8565b91505092959194509250565b61054d816104a7565b82525050565b60006020820190506105686000830184610544565b92915050565b600080fd5b6000606082840312156105895761058861056e565b5b81905092915050565b600080608083850312156105a9576105a8610444565b5b60006105b7858286016104c8565b92505060206105c885828601610573565b9150509250929050565b600081519050919050565b600082825260208201905092915050565b6000819050602082019050919050565b61060781610469565b82525050565b610616816104a7565b82525050565b60a08201600082015161063260008501826105fe565b506020820151610645602085018261060d565b50604082015161065860408501826105fe565b50606082015161066b606085018261060d565b50608082015161067e608085018261060d565b50505050565b6000610690838361061c565b60a08301905092915050565b6000602082019050919050565b60006106b4826105d2565b6106be81856105dd565b93506106c9836105ee565b8060005b838110156106fa5781516106e18882610684565b97506106ec8361069c565b9250506001810190506106cd565b5085935050505092915050565b6000602082019050818103600083015261072181846106a9565b905092915050565b7f4e487b7100000000000000000000000000000000000000000000000000000000600052603260045260246000fd5b7f4e487b7100000000000000000000000000000000000000000000000000000000600052601260045260246000fd5b6000610792826104a7565b915061079d836104a7565b9250826107ad576107ac610758565b5b828206905092915050565b7f4e487b7100000000000000000000000000000000000000000000000000000000600052601160045260246000fd5b60006107f2826104a7565b91506107fd836104a7565b9250828201905080821115610815576108146107b8565b5b9291505056fea264697066735822122049cec70f927082bca5a849ba8e623d1c7b0b8dda6056e479deab229027d1989e64736f6c63430008130033",
  "linkReferences": {},
  "deployedLinkReferences": {}
}