{
  "_format": "hh-sol-artifact-1",
  "contractName": "Dcg",
  "sourceName": "contracts/Dcg.sol",
  "abi": [
    {
      "inputs": [],
      "stateMutability": "nonpayable",
      "type": "constructor"
    },
    {
      "anonymous": false,
      "inputs": [
        {
          "indexed": false,
          "internalType": "uint256",
          "name": "gameIx",
          "type": "uint256"
        },
        {
          "components": [
            {
              "components": [
                {
                  "internalType": "address",
                  "name": "addr",
                  "type": "address"
                },
                {
                  "components": [
                    {
                      "internalType": "string",
                      "name": "name",
                      "type": "string"
                    },
                    {
                      "internalType": "uint256",
                      "name": "strength",
                      "type": "uint256"
                    },
                    {
                      "internalType": "uint256",
                      "name": "health",
                      "type": "uint256"
                    },
                    {
                      "internalType": "enum Dcg.Ability",
                      "name": "ability",
                      "type": "uint8"
                    }
                  ],
                  "internalType": "struct Dcg.Card[]",
                  "name": "cards",
                  "type": "tuple[]"
                }
              ],
              "internalType": "struct Dcg.Player",
              "name": "player1",
              "type": "tuple"
            },
            {
              "components": [
                {
                  "internalType": "address",
                  "name": "addr",
                  "type": "address"
                },
                {
                  "components": [
                    {
                      "internalType": "string",
                      "name": "name",
                      "type": "string"
                    },
                    {
                      "internalType": "uint256",
                      "name": "strength",
                      "type": "uint256"
                    },
                    {
                      "internalType": "uint256",
                      "name": "health",
                      "type": "uint256"
                    },
                    {
                      "internalType": "enum Dcg.Ability",
                      "name": "ability",
                      "type": "uint8"
                    }
                  ],
                  "internalType": "struct Dcg.Card[]",
                  "name": "cards",
                  "type": "tuple[]"
                }
              ],
              "internalType": "struct Dcg.Player",
              "name": "player2",
              "type": "tuple"
            },
            {
              "internalType": "uint256",
              "name": "turn",
              "type": "uint256"
            }
          ],
          "indexed": false,
          "internalType": "struct Dcg.Game",
          "name": "game",
          "type": "tuple"
        }
      ],
      "name": "CreatedGame",
      "type": "event"
    },
    {
      "anonymous": false,
      "inputs": [
        {
          "indexed": false,
          "internalType": "uint256",
          "name": "gameIx",
          "type": "uint256"
        },
        {
          "components": [
            {
              "components": [
                {
                  "internalType": "address",
                  "name": "addr",
                  "type": "address"
                },
                {
                  "components": [
                    {
                      "internalType": "string",
                      "name": "name",
                      "type": "string"
                    },
                    {
                      "internalType": "uint256",
                      "name": "strength",
                      "type": "uint256"
                    },
                    {
                      "internalType": "uint256",
                      "name": "health",
                      "type": "uint256"
                    },
                    {
                      "internalType": "enum Dcg.Ability",
                      "name": "ability",
                      "type": "uint8"
                    }
                  ],
                  "internalType": "struct Dcg.Card[]",
                  "name": "cards",
                  "type": "tuple[]"
                }
              ],
              "internalType": "struct Dcg.Player",
              "name": "player1",
              "type": "tuple"
            },
            {
              "components": [
                {
                  "internalType": "address",
                  "name": "addr",
                  "type": "address"
                },
                {
                  "components": [
                    {
                      "internalType": "string",
                      "name": "name",
                      "type": "string"
                    },
                    {
                      "internalType": "uint256",
                      "name": "strength",
                      "type": "uint256"
                    },
                    {
                      "internalType": "uint256",
                      "name": "health",
                      "type": "uint256"
                    },
                    {
                      "internalType": "enum Dcg.Ability",
                      "name": "ability",
                      "type": "uint8"
                    }
                  ],
                  "internalType": "struct Dcg.Card[]",
                  "name": "cards",
                  "type": "tuple[]"
                }
              ],
              "internalType": "struct Dcg.Player",
              "name": "player2",
              "type": "tuple"
            },
            {
              "internalType": "uint256",
              "name": "turn",
              "type": "uint256"
            }
          ],
          "indexed": false,
          "internalType": "struct Dcg.Game",
          "name": "game",
          "type": "tuple"
        }
      ],
      "name": "UpdatedGame",
      "type": "event"
    },
    {
      "inputs": [
        {
          "components": [
            {
              "components": [
                {
                  "internalType": "address",
                  "name": "addr",
                  "type": "address"
                },
                {
                  "components": [
                    {
                      "internalType": "string",
                      "name": "name",
                      "type": "string"
                    },
                    {
                      "internalType": "uint256",
                      "name": "strength",
                      "type": "uint256"
                    },
                    {
                      "internalType": "uint256",
                      "name": "health",
                      "type": "uint256"
                    },
                    {
                      "internalType": "enum Dcg.Ability",
                      "name": "ability",
                      "type": "uint8"
                    }
                  ],
                  "internalType": "struct Dcg.Card[]",
                  "name": "cards",
                  "type": "tuple[]"
                }
              ],
              "internalType": "struct Dcg.Player",
              "name": "player1",
              "type": "tuple"
            },
            {
              "components": [
                {
                  "internalType": "address",
                  "name": "addr",
                  "type": "address"
                },
                {
                  "components": [
                    {
                      "internalType": "string",
                      "name": "name",
                      "type": "string"
                    },
                    {
                      "internalType": "uint256",
                      "name": "strength",
                      "type": "uint256"
                    },
                    {
                      "internalType": "uint256",
                      "name": "health",
                      "type": "uint256"
                    },
                    {
                      "internalType": "enum Dcg.Ability",
                      "name": "ability",
                      "type": "uint8"
                    }
                  ],
                  "internalType": "struct Dcg.Card[]",
                  "name": "cards",
                  "type": "tuple[]"
                }
              ],
              "internalType": "struct Dcg.Player",
              "name": "player2",
              "type": "tuple"
            },
            {
              "internalType": "uint256",
              "name": "turn",
              "type": "uint256"
            }
          ],
          "internalType": "struct Dcg.Game",
          "name": "game",
          "type": "tuple"
        }
      ],
      "name": "createGame",
      "outputs": [
        {
          "internalType": "uint256",
          "name": "gameIx",
          "type": "uint256"
        }
      ],
      "stateMutability": "nonpayable",
      "type": "function"
    },
    {
      "inputs": [],
      "name": "getGames",
      "outputs": [
        {
          "components": [
            {
              "components": [
                {
                  "internalType": "address",
                  "name": "addr",
                  "type": "address"
                },
                {
                  "components": [
                    {
                      "internalType": "string",
                      "name": "name",
                      "type": "string"
                    },
                    {
                      "internalType": "uint256",
                      "name": "strength",
                      "type": "uint256"
                    },
                    {
                      "internalType": "uint256",
                      "name": "health",
                      "type": "uint256"
                    },
                    {
                      "internalType": "enum Dcg.Ability",
                      "name": "ability",
                      "type": "uint8"
                    }
                  ],
                  "internalType": "struct Dcg.Card[]",
                  "name": "cards",
                  "type": "tuple[]"
                }
              ],
              "internalType": "struct Dcg.Player",
              "name": "player1",
              "type": "tuple"
            },
            {
              "components": [
                {
                  "internalType": "address",
                  "name": "addr",
                  "type": "address"
                },
                {
                  "components": [
                    {
                      "internalType": "string",
                      "name": "name",
                      "type": "string"
                    },
                    {
                      "internalType": "uint256",
                      "name": "strength",
                      "type": "uint256"
                    },
                    {
                      "internalType": "uint256",
                      "name": "health",
                      "type": "uint256"
                    },
                    {
                      "internalType": "enum Dcg.Ability",
                      "name": "ability",
                      "type": "uint8"
                    }
                  ],
                  "internalType": "struct Dcg.Card[]",
                  "name": "cards",
                  "type": "tuple[]"
                }
              ],
              "internalType": "struct Dcg.Player",
              "name": "player2",
              "type": "tuple"
            },
            {
              "internalType": "uint256",
              "name": "turn",
              "type": "uint256"
            }
          ],
          "internalType": "struct Dcg.Game[]",
          "name": "",
          "type": "tuple[]"
        }
      ],
      "stateMutability": "view",
      "type": "function"
    },
    {
      "inputs": [
        {
          "internalType": "uint256",
          "name": "gameIx",
          "type": "uint256"
        },
        {
          "components": [
            {
              "internalType": "uint256",
              "name": "source",
              "type": "uint256"
            },
            {
              "internalType": "uint256",
              "name": "target",
              "type": "uint256"
            },
            {
              "internalType": "enum Dcg.ActionType",
              "name": "actionType",
              "type": "uint8"
            }
          ],
          "internalType": "struct Dcg.Action",
          "name": "action",
          "type": "tuple"
        }
      ],
      "name": "playTurn",
      "outputs": [],
      "stateMutability": "nonpayable",
      "type": "function"
    }
  ],
  "bytecode": "0x608060405234801561001057600080fd5b50611fd8806100206000396000f3fe608060405234801561001057600080fd5b50600436106100415760003560e01c8063a8b9ec2114610046578063c04c594714610062578063f32c8f2014610080575b600080fd5b610060600480360381019061005b9190610729565b6100b0565b005b61006a61021c565b6040516100779190610b3b565b60405180910390f35b61009a60048036038101906100959190610b7c565b6105d9565b6040516100a79190610bd4565b60405180910390f35b60008054905082106100c157600080fd5b60008083815481106100d6576100d5610bef565b5b906000526020600020906005020190506000600282600401546100f99190610c4d565b03610162573373ffffffffffffffffffffffffffffffffffffffff168160000160000160009054906101000a900473ffffffffffffffffffffffffffffffffffffffff1673ffffffffffffffffffffffffffffffffffffffff161461015d57600080fd5b6101c2565b3373ffffffffffffffffffffffffffffffffffffffff168160020160000160009054906101000a900473ffffffffffffffffffffffffffffffffffffffff1673ffffffffffffffffffffffffffffffffffffffff16146101c157600080fd5b5b60018160040160008282546101d79190610cad565b925050819055507ff387660b0a87e33093f4c0606fdd72253e6ee29a998e287c55820925541a4b43838260405161020f929190611051565b60405180910390a1505050565b60606000805480602002602001604051908101604052809291908181526020016000905b828210156105d05783829060005260206000209060050201604051806060016040529081600082016040518060400160405290816000820160009054906101000a900473ffffffffffffffffffffffffffffffffffffffff1673ffffffffffffffffffffffffffffffffffffffff1673ffffffffffffffffffffffffffffffffffffffff16815260200160018201805480602002602001604051908101604052809291908181526020016000905b82821015610401578382906000526020600020906004020160405180608001604052908160008201805461032190610d77565b80601f016020809104026020016040519081016040528092919081815260200182805461034d90610d77565b801561039a5780601f1061036f5761010080835404028352916020019161039a565b820191906000526020600020905b81548152906001019060200180831161037d57829003601f168201915b5050505050815260200160018201548152602001600282015481526020016003820160009054906101000a900460ff1660018111156103dc576103db6108a1565b5b60018111156103ee576103ed6108a1565b5b81525050815260200190600101906102ee565b50505050815250508152602001600282016040518060400160405290816000820160009054906101000a900473ffffffffffffffffffffffffffffffffffffffff1673ffffffffffffffffffffffffffffffffffffffff1673ffffffffffffffffffffffffffffffffffffffff16815260200160018201805480602002602001604051908101604052809291908181526020016000905b828210156105ab57838290600052602060002090600402016040518060800160405290816000820180546104cb90610d77565b80601f01602080910402602001604051908101604052809291908181526020018280546104f790610d77565b80156105445780601f1061051957610100808354040283529160200191610544565b820191906000526020600020905b81548152906001019060200180831161052757829003601f168201915b5050505050815260200160018201548152602001600282015481526020016003820160009054906101000a900460ff166001811115610586576105856108a1565b5b6001811115610598576105976108a1565b5b8152505081526020019060010190610498565b5050505081525050815260200160048201548152505081526020019060010190610240565b50505050905090565b60003373ffffffffffffffffffffffffffffffffffffffff168280600001906106029190611090565b600001602081019061061491906110e4565b73ffffffffffffffffffffffffffffffffffffffff161461063457600080fd5b600082604001351461064557600080fd5b6000829080600181540180825580915050600190039060005260206000209060050201600090919091909150818161067d9190611bd1565b505060008054905090507f4e50cb0ac1538063cf888ad9f8f35ceee0c1096e247c342d6f5460956f8709d481836040516106b8929190611f72565b60405180910390a1919050565b600080fd5b600080fd5b6000819050919050565b6106e2816106cf565b81146106ed57600080fd5b50565b6000813590506106ff816106d9565b92915050565b600080fd5b6000606082840312156107205761071f610705565b5b81905092915050565b600080608083850312156107405761073f6106c5565b5b600061074e858286016106f0565b925050602061075f8582860161070a565b9150509250929050565b600081519050919050565b600082825260208201905092915050565b6000819050602082019050919050565b600073ffffffffffffffffffffffffffffffffffffffff82169050919050565b60006107c082610795565b9050919050565b6107d0816107b5565b82525050565b600081519050919050565b600082825260208201905092915050565b6000819050602082019050919050565b600081519050919050565b600082825260208201905092915050565b60005b8381101561083c578082015181840152602081019050610821565b60008484015250505050565b6000601f19601f8301169050919050565b600061086482610802565b61086e818561080d565b935061087e81856020860161081e565b61088781610848565b840191505092915050565b61089b816106cf565b82525050565b7f4e487b7100000000000000000000000000000000000000000000000000000000600052602160045260246000fd5b600281106108e1576108e06108a1565b5b50565b60008190506108f2826108d0565b919050565b6000610902826108e4565b9050919050565b610912816108f7565b82525050565b600060808301600083015184820360008601526109358282610859565b915050602083015161094a6020860182610892565b50604083015161095d6040860182610892565b5060608301516109706060860182610909565b508091505092915050565b60006109878383610918565b905092915050565b6000602082019050919050565b60006109a7826107d6565b6109b181856107e1565b9350836020820285016109c3856107f2565b8060005b858110156109ff57848403895281516109e0858261097b565b94506109eb8361098f565b925060208a019950506001810190506109c7565b50829750879550505050505092915050565b6000604083016000830151610a2960008601826107c7565b5060208301518482036020860152610a41828261099c565b9150508091505092915050565b60006060830160008301518482036000860152610a6b8282610a11565b91505060208301518482036020860152610a858282610a11565b9150506040830151610a9a6040860182610892565b508091505092915050565b6000610ab18383610a4e565b905092915050565b6000602082019050919050565b6000610ad182610769565b610adb8185610774565b935083602082028501610aed85610785565b8060005b85811015610b295784840389528151610b0a8582610aa5565b9450610b1583610ab9565b925060208a01995050600181019050610af1565b50829750879550505050505092915050565b60006020820190508181036000830152610b558184610ac6565b905092915050565b600060608284031215610b7357610b72610705565b5b81905092915050565b600060208284031215610b9257610b916106c5565b5b600082013567ffffffffffffffff811115610bb057610baf6106ca565b5b610bbc84828501610b5d565b91505092915050565b610bce816106cf565b82525050565b6000602082019050610be96000830184610bc5565b92915050565b7f4e487b7100000000000000000000000000000000000000000000000000000000600052603260045260246000fd5b7f4e487b7100000000000000000000000000000000000000000000000000000000600052601260045260246000fd5b6000610c58826106cf565b9150610c63836106cf565b925082610c7357610c72610c1e565b5b828206905092915050565b7f4e487b7100000000000000000000000000000000000000000000000000000000600052601160045260246000fd5b6000610cb8826106cf565b9150610cc3836106cf565b9250828201905080821115610cdb57610cda610c7e565b5b92915050565b60008160001c9050919050565b600073ffffffffffffffffffffffffffffffffffffffff82169050919050565b6000610d21610d1c83610ce1565b610cee565b9050919050565b600081549050919050565b60008190508160005260206000209050919050565b7f4e487b7100000000000000000000000000000000000000000000000000000000600052602260045260246000fd5b60006002820490506001821680610d8f57607f821691505b602082108103610da257610da1610d48565b5b50919050565b60008190508160005260206000209050919050565b60008154610dca81610d77565b610dd4818661080d565b94506001821660008114610def5760018114610e0557610e38565b60ff198316865281151560200286019350610e38565b610e0e85610da8565b60005b83811015610e3057815481890152600182019150602081019050610e11565b808801955050505b50505092915050565b6000819050919050565b6000610e5e610e5983610ce1565b610e41565b9050919050565b600060ff82169050919050565b6000610e85610e8083610ce1565b610e65565b9050919050565b60006080830160008084018583036000870152610ea98382610dbd565b92505060018401549050610ebc81610e4b565b610ec96020870182610892565b5060028401549050610eda81610e4b565b610ee76040870182610892565b5060038401549050610ef881610e72565b610f056060870182610909565b50819250505092915050565b6000610f1d8383610e8c565b905092915050565b6000600482019050919050565b6000610f3d82610d28565b610f4781856107e1565b935083602082028501610f5985610d33565b8060005b85811015610f9457848403895281610f758582610f11565b9450610f8083610f25565b925060208a01995050600181019050610f5d565b50829750879550505050505092915050565b6000604083016000808401549050610fbd81610d0e565b610fca60008701826107c7565b50600184018583036020870152610fe18382610f32565b925050819250505092915050565b6000606083016000808401858303600087015261100c8382610fa6565b9250506002840185830360208701526110258382610fa6565b9250506004840154905061103881610e4b565b6110456040870182610892565b50819250505092915050565b60006040820190506110666000830185610bc5565b81810360208301526110788184610fef565b90509392505050565b600080fd5b600080fd5b600080fd5b6000823560016040038336030381126110ac576110ab611081565b5b80830191505092915050565b6110c1816107b5565b81146110cc57600080fd5b50565b6000813590506110de816110b8565b92915050565b6000602082840312156110fa576110f96106c5565b5b6000611108848285016110cf565b91505092915050565b7f4e487b7100000000000000000000000000000000000000000000000000000000600052600060045260246000fd5b6000813561114d816110b8565b80915050919050565b60008160001b9050919050565b600073ffffffffffffffffffffffffffffffffffffffff61118384611156565b9350801983169250808416831791505092915050565b6000819050919050565b60006111be6111b96111b484610795565b611199565b610795565b9050919050565b60006111d0826111a3565b9050919050565b60006111e2826111c5565b9050919050565b6000819050919050565b6111fc826111d7565b61120f611208826111e9565b8354611163565b8255505050565b6000808335600160200384360303811261123357611232611081565b5b80840192508235915067ffffffffffffffff82111561125557611254611086565b5b6020830192506020820236038313156112715761127061108b565b5b509250929050565b6000819050919050565b60008235600160800383360303811261129f5761129e611081565b5b80830191505092915050565b7f4e487b7100000000000000000000000000000000000000000000000000000000600052604160045260246000fd5b60006112e5826106cf565b91506112f0836106cf565b92508282026112fe816106cf565b9150828204841483151761131557611314610c7e565b5b5092915050565b600081905061132c8260046112da565b9050919050565b600082821c905092915050565b6113707fffffffffffffffffffffffffffffffffffffffffffffffffffffffffffffffff83602003600802611333565b815481168255505050565b600082821b905092915050565b6000600883026113b87fffffffffffffffffffffffffffffffffffffffffffffffffffffffffffffffff8261137b565b6113c2868361137b565b95508019841693508086168417925050509392505050565b60006113f56113f06113eb846106cf565b611199565b6106cf565b9050919050565b6000819050919050565b61140f836113da565b61142361141b826113fc565b848454611388565b825550505050565b600090565b61143861142b565b611443818484611406565b505050565b5b818110156114675761145c600082611430565b600181019050611449565b5050565b600061147c60001984600802611333565b1980831691505092915050565b6000611495838361146b565b9150826002028217905092915050565b6114ae81610da8565b6114b9838254611489565b8083556000825550505050565b60006020601f8301049050919050565b602084106000811461153157601f8411600181146114ff576114f88685611489565b835561152b565b61150883610da8565b61151f611514876114c6565b820160018301611448565b61152987856114a5565b505b5061157e565b61153a82610da8565b611543866114c6565b8101601f8716801561155d5761155c8160018403611340565b5b611571611569886114c6565b840183611448565b6001886002021785555050505b5050505050565b6801000000000000000084111561159f5761159e6112ab565b5b60208310600081146115ea5760208510600081146115c8576115c18685611489565b83556115e4565b8360ff19169350836115d984610da8565b556001866002020183555b506115f4565b6001856002020182555b5050505050565b805461160681610d77565b8084111561161b5761161a84828486611585565b5b808410156116305761162f848284866114d6565b5b50505050565b8181101561165457611649600082611430565b600181019050611636565b5050565b6116636000826115fb565b50565b6000821461167757611676611111565b5b61168081611658565b5050565b6116916000808301611666565b61169f600060018301611430565b6116ad600060028301611430565b6000600382015550565b600082146116c8576116c7611111565b5b6116d181611684565b5050565b5b818110156116f4576116e96000826116b7565b6004810190506116d6565b5050565b81831015611731576117098261131c565b6117128461131c565b61171b83610d33565b81810183820161172b81836116d5565b50505050505b505050565b680100000000000000008211156117505761174f6112ab565b5b61175981610d28565b8282556117678382846116f8565b505050565b600082905092915050565b6000808335600160200384360303811261179457611793611081565b5b80840192508235915067ffffffffffffffff8211156117b6576117b5611086565b5b6020830192506001820236038313156117d2576117d161108b565b5b509250929050565b600082905092915050565b601f821115611826576117f781610da8565b611800846114c6565b8101602085101561180f578190505b61182361181b856114c6565b830182611448565b50505b505050565b61183583836117da565b67ffffffffffffffff81111561184e5761184d6112ab565b5b6118588254610d77565b6118638282856117e5565b6000601f8311600181146118925760008415611880578287013590505b61188a8582611489565b8655506118f2565b601f1984166118a086610da8565b60005b828110156118c8578489013582556001820191506020850194506020810190506118a3565b868310156118e557848901356118e1601f89168261146b565b8355505b6001600288020188555050505b50505050505050565b61190683838361182b565b505050565b60008135611918816106d9565b80915050919050565b60007fffffffffffffffffffffffffffffffffffffffffffffffffffffffffffffffff61194d84611156565b9350801983169250808416831791505092915050565b61196c826113da565b61197f611978826113fc565b8354611921565b8255505050565b6002811061199357600080fd5b50565b600081356119a381611986565b80915050919050565b600060ff6119b984611156565b9350801983169250808416831791505092915050565b60006119da826108e4565b9050919050565b6000819050919050565b6119f4826119cf565b611a07611a00826119e1565b83546119ac565b8255505050565b6000810160008301611a208185611777565b611a2b8183866118fb565b50505050600181016020830180611a418161190b565b9050611a4d8184611963565b505050600281016040830180611a628161190b565b9050611a6e8184611963565b505050600381016060830180611a8381611996565b9050611a8f81846119eb565b5050505050565b611aa08282611a0e565b5050565b611aae838361176c565b611ab88183611736565b611ac183611279565b611aca83610d33565b60005b83811015611b0157611adf8387611283565b611ae98184611a96565b60208401935060048301925050600181019050611acd565b50505050505050565b611b15838383611aa4565b505050565b600081016000830180611b2c81611140565b9050611b3881846111f3565b5050506001810160208301611b4d8185611216565b611b58818386611b0a565b505050505050565b611b6a8282611b1a565b5050565b6000810160008301611b808185611090565b611b8a8184611b60565b5050506002810160208301611b9f8185611090565b611ba98184611b60565b505050600481016040830180611bbe8161190b565b9050611bca8184611963565b5050505050565b611bdb8282611b6e565b5050565b600080fd5b600082356001604003833603038112611c0057611bff611bdf565b5b82810191505092915050565b6000611c1b60208401846110cf565b905092915050565b600080fd5b600080fd5b60008083356001602003843603038112611c4a57611c49611bdf565b5b83810192508235915060208301925067ffffffffffffffff821115611c7257611c71611c23565b5b602082023603831315611c8857611c87611c28565b5b509250929050565b60008083356001602003843603038112611cad57611cac611bdf565b5b83810192508235915060208301925067ffffffffffffffff821115611cd557611cd4611c23565b5b600182023603831315611ceb57611cea611c28565b5b509250929050565b82818337600083830152505050565b6000611d0e838561080d565b9350611d1b838584611cf3565b611d2483610848565b840190509392505050565b6000611d3e60208401846106f0565b905092915050565b600081359050611d5581611986565b92915050565b6000611d6a6020840184611d46565b905092915050565b600060808301611d856000840184611c90565b8583036000870152611d98838284611d02565b92505050611da96020840184611d2f565b611db66020860182610892565b50611dc46040840184611d2f565b611dd16040860182610892565b50611ddf6060840184611d5b565b611dec6060860182610909565b508091505092915050565b6000611e038383611d72565b905092915050565b600082356001608003833603038112611e2757611e26611bdf565b5b82810191505092915050565b6000602082019050919050565b6000611e4c83856107e1565b935083602084028501611e5e84611279565b8060005b87811015611ea2578484038952611e798284611e0b565b611e838582611df7565b9450611e8e83611e33565b925060208a01995050600181019050611e62565b50829750879450505050509392505050565b600060408301611ec76000840184611c0c565b611ed460008601826107c7565b50611ee26020840184611c2d565b8583036020870152611ef5838284611e40565b925050508091505092915050565b600060608301611f166000840184611be4565b8482036000860152611f288282611eb4565b915050611f386020840184611be4565b8482036020860152611f4a8282611eb4565b915050611f5a6040840184611d2f565b611f676040860182610892565b508091505092915050565b6000604082019050611f876000830185610bc5565b8181036020830152611f998184611f03565b9050939250505056fea2646970667358221220a0c6f4f4ae0d54211ac43ca8ed45a2ba82dd39f5ea8d9baaad069004a043b8a064736f6c63430008130033",
  "linkReferences": {},
  "deployedLinkReferences": {}
}