{
  "_format": "hh-sol-artifact-1",
  "contractName": "Dcg",
  "sourceName": "contracts/Dcg.sol",
  "abi": [
    {
      "inputs": [],
      "stateMutability": "nonpayable",
      "type": "constructor"
    },
    {
      "anonymous": false,
      "inputs": [
        {
          "indexed": false,
          "internalType": "uint256",
          "name": "gameIx",
          "type": "uint256"
        },
        {
          "components": [
            {
              "components": [
                {
                  "internalType": "address",
                  "name": "addr",
                  "type": "address"
                },
                {
                  "components": [
                    {
                      "internalType": "string",
                      "name": "name",
                      "type": "string"
                    },
                    {
                      "internalType": "uint256",
                      "name": "strength",
                      "type": "uint256"
                    },
                    {
                      "internalType": "uint256",
                      "name": "health",
                      "type": "uint256"
                    },
                    {
                      "internalType": "enum Dcg.Ability",
                      "name": "ability",
                      "type": "uint8"
                    }
                  ],
                  "internalType": "struct Dcg.Card[]",
                  "name": "cards",
                  "type": "tuple[]"
                }
              ],
              "internalType": "struct Dcg.Player",
              "name": "player1",
              "type": "tuple"
            },
            {
              "components": [
                {
                  "internalType": "address",
                  "name": "addr",
                  "type": "address"
                },
                {
                  "components": [
                    {
                      "internalType": "string",
                      "name": "name",
                      "type": "string"
                    },
                    {
                      "internalType": "uint256",
                      "name": "strength",
                      "type": "uint256"
                    },
                    {
                      "internalType": "uint256",
                      "name": "health",
                      "type": "uint256"
                    },
                    {
                      "internalType": "enum Dcg.Ability",
                      "name": "ability",
                      "type": "uint8"
                    }
                  ],
                  "internalType": "struct Dcg.Card[]",
                  "name": "cards",
                  "type": "tuple[]"
                }
              ],
              "internalType": "struct Dcg.Player",
              "name": "player2",
              "type": "tuple"
            },
            {
              "internalType": "uint256",
              "name": "turn",
              "type": "uint256"
            }
          ],
          "indexed": false,
          "internalType": "struct Dcg.Game",
          "name": "game",
          "type": "tuple"
        }
      ],
      "name": "CreatedGame",
      "type": "event"
    },
    {
      "anonymous": false,
      "inputs": [
        {
          "indexed": false,
          "internalType": "uint256",
          "name": "gameIx",
          "type": "uint256"
        },
        {
          "components": [
            {
              "components": [
                {
                  "internalType": "address",
                  "name": "addr",
                  "type": "address"
                },
                {
                  "components": [
                    {
                      "internalType": "string",
                      "name": "name",
                      "type": "string"
                    },
                    {
                      "internalType": "uint256",
                      "name": "strength",
                      "type": "uint256"
                    },
                    {
                      "internalType": "uint256",
                      "name": "health",
                      "type": "uint256"
                    },
                    {
                      "internalType": "enum Dcg.Ability",
                      "name": "ability",
                      "type": "uint8"
                    }
                  ],
                  "internalType": "struct Dcg.Card[]",
                  "name": "cards",
                  "type": "tuple[]"
                }
              ],
              "internalType": "struct Dcg.Player",
              "name": "player1",
              "type": "tuple"
            },
            {
              "components": [
                {
                  "internalType": "address",
                  "name": "addr",
                  "type": "address"
                },
                {
                  "components": [
                    {
                      "internalType": "string",
                      "name": "name",
                      "type": "string"
                    },
                    {
                      "internalType": "uint256",
                      "name": "strength",
                      "type": "uint256"
                    },
                    {
                      "internalType": "uint256",
                      "name": "health",
                      "type": "uint256"
                    },
                    {
                      "internalType": "enum Dcg.Ability",
                      "name": "ability",
                      "type": "uint8"
                    }
                  ],
                  "internalType": "struct Dcg.Card[]",
                  "name": "cards",
                  "type": "tuple[]"
                }
              ],
              "internalType": "struct Dcg.Player",
              "name": "player2",
              "type": "tuple"
            },
            {
              "internalType": "uint256",
              "name": "turn",
              "type": "uint256"
            }
          ],
          "indexed": false,
          "internalType": "struct Dcg.Game",
          "name": "game",
          "type": "tuple"
        }
      ],
      "name": "UpdatedGame",
      "type": "event"
    },
    {
      "inputs": [
        {
          "components": [
            {
              "components": [
                {
                  "internalType": "address",
                  "name": "addr",
                  "type": "address"
                },
                {
                  "components": [
                    {
                      "internalType": "string",
                      "name": "name",
                      "type": "string"
                    },
                    {
                      "internalType": "uint256",
                      "name": "strength",
                      "type": "uint256"
                    },
                    {
                      "internalType": "uint256",
                      "name": "health",
                      "type": "uint256"
                    },
                    {
                      "internalType": "enum Dcg.Ability",
                      "name": "ability",
                      "type": "uint8"
                    }
                  ],
                  "internalType": "struct Dcg.Card[]",
                  "name": "cards",
                  "type": "tuple[]"
                }
              ],
              "internalType": "struct Dcg.Player",
              "name": "player1",
              "type": "tuple"
            },
            {
              "components": [
                {
                  "internalType": "address",
                  "name": "addr",
                  "type": "address"
                },
                {
                  "components": [
                    {
                      "internalType": "string",
                      "name": "name",
                      "type": "string"
                    },
                    {
                      "internalType": "uint256",
                      "name": "strength",
                      "type": "uint256"
                    },
                    {
                      "internalType": "uint256",
                      "name": "health",
                      "type": "uint256"
                    },
                    {
                      "internalType": "enum Dcg.Ability",
                      "name": "ability",
                      "type": "uint8"
                    }
                  ],
                  "internalType": "struct Dcg.Card[]",
                  "name": "cards",
                  "type": "tuple[]"
                }
              ],
              "internalType": "struct Dcg.Player",
              "name": "player2",
              "type": "tuple"
            },
            {
              "internalType": "uint256",
              "name": "turn",
              "type": "uint256"
            }
          ],
          "internalType": "struct Dcg.Game",
          "name": "game",
          "type": "tuple"
        }
      ],
      "name": "createGame",
      "outputs": [
        {
          "internalType": "uint256",
          "name": "gameIx",
          "type": "uint256"
        }
      ],
      "stateMutability": "nonpayable",
      "type": "function"
    },
    {
      "inputs": [
        {
          "internalType": "uint256",
          "name": "",
          "type": "uint256"
        }
      ],
      "name": "games",
      "outputs": [
        {
          "components": [
            {
              "internalType": "address",
              "name": "addr",
              "type": "address"
            },
            {
              "components": [
                {
                  "internalType": "string",
                  "name": "name",
                  "type": "string"
                },
                {
                  "internalType": "uint256",
                  "name": "strength",
                  "type": "uint256"
                },
                {
                  "internalType": "uint256",
                  "name": "health",
                  "type": "uint256"
                },
                {
                  "internalType": "enum Dcg.Ability",
                  "name": "ability",
                  "type": "uint8"
                }
              ],
              "internalType": "struct Dcg.Card[]",
              "name": "cards",
              "type": "tuple[]"
            }
          ],
          "internalType": "struct Dcg.Player",
          "name": "player1",
          "type": "tuple"
        },
        {
          "components": [
            {
              "internalType": "address",
              "name": "addr",
              "type": "address"
            },
            {
              "components": [
                {
                  "internalType": "string",
                  "name": "name",
                  "type": "string"
                },
                {
                  "internalType": "uint256",
                  "name": "strength",
                  "type": "uint256"
                },
                {
                  "internalType": "uint256",
                  "name": "health",
                  "type": "uint256"
                },
                {
                  "internalType": "enum Dcg.Ability",
                  "name": "ability",
                  "type": "uint8"
                }
              ],
              "internalType": "struct Dcg.Card[]",
              "name": "cards",
              "type": "tuple[]"
            }
          ],
          "internalType": "struct Dcg.Player",
          "name": "player2",
          "type": "tuple"
        },
        {
          "internalType": "uint256",
          "name": "turn",
          "type": "uint256"
        }
      ],
      "stateMutability": "view",
      "type": "function"
    }
  ],
  "bytecode": "0x608060405234801561001057600080fd5b506109ae806100206000396000f3fe608060405234801561001057600080fd5b50600436106100365760003560e01c8063117a5b901461003b578063f32c8f201461006d575b600080fd5b610055600480360381019061005091906104d0565b61009d565b604051610064939291906107c5565b60405180910390f35b6100876004803603810190610082919061082e565b610417565b6040516100949190610877565b60405180910390f35b600081815481106100ad57600080fd5b9060005260206000209060050201600091509050806000016040518060400160405290816000820160009054906101000a900473ffffffffffffffffffffffffffffffffffffffff1673ffffffffffffffffffffffffffffffffffffffff1673ffffffffffffffffffffffffffffffffffffffff16815260200160018201805480602002602001604051908101604052809291908181526020016000905b8282101561025e578382906000526020600020906004020160405180608001604052908160008201805461017e906108c1565b80601f01602080910402602001604051908101604052809291908181526020018280546101aa906108c1565b80156101f75780601f106101cc576101008083540402835291602001916101f7565b820191906000526020600020905b8154815290600101906020018083116101da57829003601f168201915b5050505050815260200160018201548152602001600282015481526020016003820160009054906101000a900460ff16600181111561023957610238610609565b5b600181111561024b5761024a610609565b5b815250508152602001906001019061014b565b505050508152505090806002016040518060400160405290816000820160009054906101000a900473ffffffffffffffffffffffffffffffffffffffff1673ffffffffffffffffffffffffffffffffffffffff1673ffffffffffffffffffffffffffffffffffffffff16815260200160018201805480602002602001604051908101604052809291908181526020016000905b828210156104045783829060005260206000209060040201604051806080016040529081600082018054610324906108c1565b80601f0160208091040260200160405190810160405280929190818152602001828054610350906108c1565b801561039d5780601f106103725761010080835404028352916020019161039d565b820191906000526020600020905b81548152906001019060200180831161038057829003601f168201915b5050505050815260200160018201548152602001600282015481526020016003820160009054906101000a900460ff1660018111156103df576103de610609565b5b60018111156103f1576103f0610609565b5b81525050815260200190600101906102f1565b5050505081525050908060040154905083565b60003373ffffffffffffffffffffffffffffffffffffffff1682806000019061044091906108f7565b6000016020810190610452919061094b565b73ffffffffffffffffffffffffffffffffffffffff161461047257600080fd5b600082604001351461048357600080fd5b6000805490509050919050565b600080fd5b600080fd5b6000819050919050565b6104ad8161049a565b81146104b857600080fd5b50565b6000813590506104ca816104a4565b92915050565b6000602082840312156104e6576104e5610490565b5b60006104f4848285016104bb565b91505092915050565b600073ffffffffffffffffffffffffffffffffffffffff82169050919050565b6000610528826104fd565b9050919050565b6105388161051d565b82525050565b600081519050919050565b600082825260208201905092915050565b6000819050602082019050919050565b600081519050919050565b600082825260208201905092915050565b60005b838110156105a4578082015181840152602081019050610589565b60008484015250505050565b6000601f19601f8301169050919050565b60006105cc8261056a565b6105d68185610575565b93506105e6818560208601610586565b6105ef816105b0565b840191505092915050565b6106038161049a565b82525050565b7f4e487b7100000000000000000000000000000000000000000000000000000000600052602160045260246000fd5b6002811061064957610648610609565b5b50565b600081905061065a82610638565b919050565b600061066a8261064c565b9050919050565b61067a8161065f565b82525050565b6000608083016000830151848203600086015261069d82826105c1565b91505060208301516106b260208601826105fa565b5060408301516106c560408601826105fa565b5060608301516106d86060860182610671565b508091505092915050565b60006106ef8383610680565b905092915050565b6000602082019050919050565b600061070f8261053e565b6107198185610549565b93508360208202850161072b8561055a565b8060005b85811015610767578484038952815161074885826106e3565b9450610753836106f7565b925060208a0199505060018101905061072f565b50829750879550505050505092915050565b6000604083016000830151610791600086018261052f565b50602083015184820360208601526107a98282610704565b9150508091505092915050565b6107bf8161049a565b82525050565b600060608201905081810360008301526107df8186610779565b905081810360208301526107f38185610779565b905061080260408301846107b6565b949350505050565b600080fd5b6000606082840312156108255761082461080a565b5b81905092915050565b60006020828403121561084457610843610490565b5b600082013567ffffffffffffffff81111561086257610861610495565b5b61086e8482850161080f565b91505092915050565b600060208201905061088c60008301846107b6565b92915050565b7f4e487b7100000000000000000000000000000000000000000000000000000000600052602260045260246000fd5b600060028204905060018216806108d957607f821691505b6020821081036108ec576108eb610892565b5b50919050565b600080fd5b600082356001604003833603038112610913576109126108f2565b5b80830191505092915050565b6109288161051d565b811461093357600080fd5b50565b6000813590506109458161091f565b92915050565b60006020828403121561096157610960610490565b5b600061096f84828501610936565b9150509291505056fea26469706673582212203945dbea37349356c0d3578dbccc7f692611523481607be76cb0ca22f30245ad64736f6c63430008130033",
  "linkReferences": {},
  "deployedLinkReferences": {}
}